{
  "abi": [
    {
      "type": "constructor",
      "inputs": [
        {
          "internalType": "address",
          "name": "factory",
          "type": "address"
        },
        {
          "internalType": "uint256",
          "name": "mintFee",
          "type": "uint256"
        }
      ]
    },
    {
      "type": "function",
      "name": "create2WithEther",
      "inputs": [
        {
          "internalType": "bytes32",
          "name": "salt",
          "type": "bytes32"
        }
      ],
      "outputs": [
        {
          "internalType": "address",
          "name": "",
          "type": "address"
        }
      ],
      "stateMutability": "payable"
    },
    {
      "type": "function",
      "name": "createWithEther",
      "inputs": [],
      "outputs": [
        {
          "internalType": "address",
          "name": "",
          "type": "address"
        }
      ],
      "stateMutability": "payable"
    },
    {
      "type": "function",
      "name": "getFactory",
      "inputs": [],
      "outputs": [
        {
          "internalType": "address",
          "name": "",
          "type": "address"
        }
      ],
      "stateMutability": "view"
    },
    {
      "type": "function",
      "name": "getMintFee",
      "inputs": [],
      "outputs": [
        {
          "internalType": "uint256",
          "name": "",
          "type": "uint256"
        }
      ],
      "stateMutability": "view"
    },
    {
      "type": "function",
      "name": "isPaid",
      "inputs": [
        {
          "internalType": "address",
          "name": "crucible",
          "type": "address"
        }
      ],
      "outputs": [
        {
          "internalType": "bool",
          "name": "",
          "type": "bool"
        }
      ],
      "stateMutability": "view"
    },
    {
      "type": "function",
      "name": "onERC721Received",
      "inputs": [
        {
          "internalType": "address",
          "name": "",
          "type": "address"
        },
        {
          "internalType": "address",
          "name": "",
          "type": "address"
        },
        {
          "internalType": "uint256",
          "name": "",
          "type": "uint256"
        },
        {
          "internalType": "bytes",
          "name": "",
          "type": "bytes"
        }
      ],
      "outputs": [
        {
          "internalType": "bytes4",
          "name": "",
          "type": "bytes4"
        }
      ],
      "stateMutability": "nonpayable"
    },
    {
      "type": "function",
      "name": "owner",
      "inputs": [],
      "outputs": [
        {
          "internalType": "address",
          "name": "",
          "type": "address"
        }
      ],
      "stateMutability": "view"
    },
    {
      "type": "function",
      "name": "payFee",
      "inputs": [
        {
          "internalType": "address",
          "name": "crucible",
          "type": "address"
        }
      ],
      "outputs": [
        {
          "internalType": "bool",
          "name": "",
          "type": "bool"
        }
      ],
      "stateMutability": "payable"
    },
    {
      "type": "function",
      "name": "renounceOwnership",
      "inputs": [],
      "outputs": [],
      "stateMutability": "nonpayable"
    },
    {
      "type": "function",
      "name": "setMintFee",
      "inputs": [
        {
          "internalType": "uint256",
          "name": "fee",
          "type": "uint256"
        }
      ],
      "outputs": [],
      "stateMutability": "nonpayable"
    },
    {
      "type": "function",
      "name": "transferOwnership",
      "inputs": [
        {
          "internalType": "address",
          "name": "newOwner",
          "type": "address"
        }
      ],
      "outputs": [],
      "stateMutability": "nonpayable"
    },
    {
      "type": "function",
      "name": "withdraw",
      "inputs": [
        {
          "internalType": "address",
          "name": "to",
          "type": "address"
        }
      ],
      "outputs": [],
      "stateMutability": "payable"
    },
    {
      "type": "event",
      "name": "OwnershipTransferred",
      "inputs": [
        {
          "name": "previousOwner",
          "type": "address",
          "indexed": true
        },
        {
          "name": "newOwner",
          "type": "address",
          "indexed": true
        }
      ],
      "anonymous": false
    },
    {
      "type": "error",
      "name": "IncorrectAmount",
      "inputs": []
    },
    {
      "type": "error",
      "name": "InvalidAddress",
      "inputs": []
    }
  ],
  "bytecode": {
    "object": "0x60a060405234801561001057600080fd5b506040516110a13803806110a183398101604081905261002f9161009e565b6100383361004e565b6001600160a01b039091166080526001556100d8565b600080546001600160a01b038381166001600160a01b0319831681178455604051919092169283917f8be0079c531659141344cd1fd0a4f28419497f9722a3daafe3b4186f6b6457e09190a35050565b600080604083850312156100b157600080fd5b82516001600160a01b03811681146100c857600080fd5b6020939093015192949293505050565b608051610f8b6101166000396000818161023e01528181610321015281816103f7015281816105da01528181610878015261094e0152610f8b6000f3fe6080604052600436106100c75760003560e01c80637a5caab311610074578063d9933a5a1161004e578063d9933a5a1461028d578063eddd0d9c14610295578063f2fde38b146102b557600080fd5b80637a5caab31461021157806388cc58e41461022f5780638da5cb5b1461026257600080fd5b80636ded82f8116100a55780636ded82f8146101935780636f5a955b146101e9578063715018a6146101fc57600080fd5b8063150b7a02146100cc578063261d16c71461014657806351cff8d91461017e575b600080fd5b3480156100d857600080fd5b506101106100e7366004610dc2565b7f150b7a0200000000000000000000000000000000000000000000000000000000949350505050565b6040517fffffffff0000000000000000000000000000000000000000000000000000000090911681526020015b60405180910390f35b610159610154366004610ec0565b6102d5565b60405173ffffffffffffffffffffffffffffffffffffffff909116815260200161013d565b61019161018c366004610ed9565b6104a9565b005b34801561019f57600080fd5b506101d96101ae366004610ed9565b73ffffffffffffffffffffffffffffffffffffffff1660009081526002602052604090205460ff1690565b604051901515815260200161013d565b6101d96101f7366004610ed9565b610589565b34801561020857600080fd5b506101916107a8565b34801561021d57600080fd5b5060015460405190815260200161013d565b34801561023b57600080fd5b507f0000000000000000000000000000000000000000000000000000000000000000610159565b34801561026e57600080fd5b5060005473ffffffffffffffffffffffffffffffffffffffff16610159565b610159610835565b3480156102a157600080fd5b506101916102b0366004610ec0565b6109ff565b3480156102c157600080fd5b506101916102d0366004610ed9565b610a85565b60006102df610bb2565b604080517f8c0b8db2000000000000000000000000000000000000000000000000000000008152600481019190915260006044820181905260248201849052907f000000000000000000000000000000000000000000000000000000000000000073ffffffffffffffffffffffffffffffffffffffff1690638c0b8db2906064016020604051808303816000875af115801561037f573d6000803e3d6000fd5b505050506040513d601f19601f820116820180604052508101906103a39190610efd565b6040517f42842e0e00000000000000000000000000000000000000000000000000000000815230600482015233602482015273ffffffffffffffffffffffffffffffffffffffff82811660448301529192507f0000000000000000000000000000000000000000000000000000000000000000909116906342842e0e90606401600060405180830381600087803b15801561043d57600080fd5b505af1158015610451573d6000803e3d6000fd5b50505073ffffffffffffffffffffffffffffffffffffffff8216600090815260026020526040902080547fffffffffffffffffffffffffffffffffffffffffffffffffffffffffffffff001660011790555092915050565b60005473ffffffffffffffffffffffffffffffffffffffff16331461052f576040517f08c379a000000000000000000000000000000000000000000000000000000000815260206004820181905260248201527f4f776e61626c653a2063616c6c6572206973206e6f7420746865206f776e657260448201526064015b60405180910390fd5b73ffffffffffffffffffffffffffffffffffffffff811661057c576040517fe6c4247b00000000000000000000000000000000000000000000000000000000815260040160405180910390fd5b6105868147610bed565b50565b6000610593610bb2565b6040517f6352211e00000000000000000000000000000000000000000000000000000000815273ffffffffffffffffffffffffffffffffffffffff838116600483015233917f000000000000000000000000000000000000000000000000000000000000000090911690636352211e90602401602060405180830381865afa158015610623573d6000803e3d6000fd5b505050506040513d601f19601f820116820180604052508101906106479190610efd565b73ffffffffffffffffffffffffffffffffffffffff16146106c4576040517f08c379a000000000000000000000000000000000000000000000000000000000815260206004820152601260248201527f6e6f74206372756369626c65206f776e657200000000000000000000000000006044820152606401610526565b73ffffffffffffffffffffffffffffffffffffffff821660009081526002602052604090205460ff1615610754576040517f08c379a000000000000000000000000000000000000000000000000000000000815260206004820152601060248201527f66656520616c72656164792070616964000000000000000000000000000000006044820152606401610526565b5073ffffffffffffffffffffffffffffffffffffffff16600090815260026020526040902080547fffffffffffffffffffffffffffffffffffffffffffffffffffffffffffffff0016600190811790915590565b60005473ffffffffffffffffffffffffffffffffffffffff163314610829576040517f08c379a000000000000000000000000000000000000000000000000000000000815260206004820181905260248201527f4f776e61626c653a2063616c6c6572206973206e6f7420746865206f776e65726044820152606401610526565b6108336000610cfc565b565b600061083f610bb2565b6040517fcf5ba53f00000000000000000000000000000000000000000000000000000000815260206004820152600060248201819052907f000000000000000000000000000000000000000000000000000000000000000073ffffffffffffffffffffffffffffffffffffffff169063cf5ba53f906044016020604051808303816000875af11580156108d6573d6000803e3d6000fd5b505050506040513d601f19601f820116820180604052508101906108fa9190610efd565b6040517f42842e0e00000000000000000000000000000000000000000000000000000000815230600482015233602482015273ffffffffffffffffffffffffffffffffffffffff82811660448301529192507f0000000000000000000000000000000000000000000000000000000000000000909116906342842e0e90606401600060405180830381600087803b15801561099457600080fd5b505af11580156109a8573d6000803e3d6000fd5b50505073ffffffffffffffffffffffffffffffffffffffff8216600090815260026020526040902080547fffffffffffffffffffffffffffffffffffffffffffffffffffffffffffffff0016600117905550919050565b60005473ffffffffffffffffffffffffffffffffffffffff163314610a80576040517f08c379a000000000000000000000000000000000000000000000000000000000815260206004820181905260248201527f4f776e61626c653a2063616c6c6572206973206e6f7420746865206f776e65726044820152606401610526565b600155565b60005473ffffffffffffffffffffffffffffffffffffffff163314610b06576040517f08c379a000000000000000000000000000000000000000000000000000000000815260206004820181905260248201527f4f776e61626c653a2063616c6c6572206973206e6f7420746865206f776e65726044820152606401610526565b73ffffffffffffffffffffffffffffffffffffffff8116610ba9576040517f08c379a000000000000000000000000000000000000000000000000000000000815260206004820152602660248201527f4f776e61626c653a206e6577206f776e657220697320746865207a65726f206160448201527f64647265737300000000000000000000000000000000000000000000000000006064820152608401610526565b61058681610cfc565b6001543414610833576040517f69640e7200000000000000000000000000000000000000000000000000000000815260040160405180910390fd5b6040805160008082526020820190925273ffffffffffffffffffffffffffffffffffffffff8416908390604051610c249190610f1a565b60006040518083038185875af1925050503d8060008114610c61576040519150601f19603f3d011682016040523d82523d6000602084013e610c66565b606091505b5050905080610cf7576040517f08c379a000000000000000000000000000000000000000000000000000000000815260206004820152603460248201527f5472616e7366657248656c7065723a3a736166655472616e736665724554483a60448201527f20455448207472616e73666572206661696c65640000000000000000000000006064820152608401610526565b505050565b6000805473ffffffffffffffffffffffffffffffffffffffff8381167fffffffffffffffffffffffff0000000000000000000000000000000000000000831681178455604051919092169283917f8be0079c531659141344cd1fd0a4f28419497f9722a3daafe3b4186f6b6457e09190a35050565b73ffffffffffffffffffffffffffffffffffffffff8116811461058657600080fd5b7f4e487b7100000000000000000000000000000000000000000000000000000000600052604160045260246000fd5b60008060008060808587031215610dd857600080fd5b8435610de381610d71565b93506020850135610df381610d71565b925060408501359150606085013567ffffffffffffffff80821115610e1757600080fd5b818701915087601f830112610e2b57600080fd5b813581811115610e3d57610e3d610d93565b604051601f82017fffffffffffffffffffffffffffffffffffffffffffffffffffffffffffffffe0908116603f01168101908382118183101715610e8357610e83610d93565b816040528281528a6020848701011115610e9c57600080fd5b82602086016020830137600060208483010152809550505050505092959194509250565b600060208284031215610ed257600080fd5b5035919050565b600060208284031215610eeb57600080fd5b8135610ef681610d71565b9392505050565b600060208284031215610f0f57600080fd5b8151610ef681610d71565b6000825160005b81811015610f3b5760208186018101518583015201610f21565b81811115610f4a576000828501525b50919091019291505056fea2646970667358221220090e6b5a3682b57664bdfd26da85a17b1fad4c61a7052ddbf1280731bfe919b264736f6c634300080c0033",
    "linkReferences": {}
  }
}